:020000040800F2
:100000000028002049140008B9130008BF13000895
:10001000C5130008CB130008D1130008000000002E
:10002000000000000000000000000000D7130008DE
:10003000E313000800000000EF130008FB130008A2
:1000400091140008911400089114000891140008FC
:1000500091140008911400089114000891140008EC
:1000600091140008911400089114000891140008DC
:1000700091140008911400089114000891140008CC
:1000800091140008911400089114000891140008BC
:1000900091140008911400089114000891140008AC
:1000A000911400089114000891140008911400089C
:1000B00009140008911400080000000091140008C1
:1000C00091140008000000000000000091140008D6
:1000D00000000000911400089114000800000000C6
:1000E0009114000891140008911400080000000009
:1000F0000000000000000000000000000000000000
:0C01000000000000000000005FF808F1A3
:10010C0010B5054C237833B9044B13B10448AFF345
:10011C0000800123237010BD24000020000000008B
:10012C00002B000808B5034B1BB103490348AFF380
:10013C00008008BD0000000028000020002B0008F3
:10014C0080B582B000AF78607B68012B05D10022AE
:10015C0002210F4801F0BDFC16E07B68022B05D193
:10016C00002204210A4801F0B4FC0DE07B68032B4B
:10017C0005D100220821064801F0ABFC04E0002266
:10018C001021034801F0A5FC00BF0837BD4680BD17
:10019C000008014080B586B000AF78603960474AEE
:1001AC0007F10C0307CA03C31A807B68012B05D126
:1001BC0001220221424801F08CFC19E07B68022BE1
:1001CC0005D1012204213E4801F083FC10E07B683C
:1001DC00032B05D101220821394801F07AFC07E0F4
:1001EC007B68042B04D101221021354801F071FCED
:1001FC0007F10C023B6813441B78FB75FB7D03F085
:10020C000103BB75BB7D1A4601212E4801F061FC30
:10021C00FB7D5B08DBB203F00103BB75BB7D1A46AB
:10022C000221284801F055FCFB7D9B08DBB203F052
:10023C000103BB75BB7D1A460421224801F049FC21
:10024C00FB7DDB08DBB203F00103BB75BB7D1A46FB
:10025C0008211C4801F03DFCFB7D1B09DBB203F0BF
:10026C000103BB75BB7D1A461021164801F031FC09
:10027C00FB7D5B09DBB203F00103BB75BB7D1A464A
:10028C002021104801F025FCFB7D9B09DBB203F01B
:10029C000103BB75BB7D1A4640210A4801F019FCCD
:1002AC00FB7DDB09BB75BB7D1A468021054801F03F
:1002BC0010FC00BF1837BD4680BD00BF182B0008CE
:1002CC0000080140000C014080B584B000AF78609C
:1002DC000023FB6016E000210120FFF75BFF0120EB
:1002EC0001F034F90120FFF72BFF79680220FFF7AA
:1002FC0051FF012001F02AF90220FFF721FFFB68D2
:10030C000133FB60FB68272BE5DD00BF00BF103716
:10031C00BD4680BD80B586B000AF414B1A68414BDD
:10032C0083FB02139910D317C91A0B469B000B447D
:10033C005B00D31A3B613A4B1A683B4B83FB0213AD
:10034C005911D317CB1A642101FB03F3D31A354A85
:10035C0082FB03129210DB17D31AFB60334B1A6823
:10036C00304B83FB02139910D317C91A0B469B0011
:10037C000B445B00D31ABB602C4B1A682A4B83FBD3
:10038C0002135911D317CB1A642101FB03F3D31AAF
:10039C00244A82FB03129210DB17D31A7B605A2378
:1003AC003B6000237B6132E0002000F059FE0346E5
:1003BC00002B01D001232FE079680120FFF7EAFE22
:1003CC00012001F0C3F80120FFF7BAFEB968022042
:1003DC00FFF7E0FE012001F0B9F80220FFF7B0FEB4
:1003EC00F9680320FFF7D6FE012001F0AFF80320D7
:1003FC00FFF7A6FE39690420FFF7CCFE012001F0BF
:10040C00A5F80420FFF79CFE7B6901337B617A69B8
:10041C003B689A42C8DB002318461837BD4680BD9E
:10042C0068000020676666661F85EB515C00002043
:10043C0080B586B000AFF860B9607A60FB680133B4
:10044C00FB60BB680133BB60002000F009FE034673
:10045C00002B01D0012358E1AE4AFB681360AE4A71
:10046C00BB681360AD4A7B681360AD4AFB681360D0
:10047C00FB687B6193E0002000F0F2FD0346002B4B
:10048C0001D0012341E1A34B1B68013BA14A13603E
:10049C00A14B1B68013BA04A1360A14B1B68013B9D
:1004AC009F4A13609C4B1B68002B0BDA002000F05A
:1004BC00D7FD0346002B01D0012326E1974B1B6887
:1004CC00954A1360FA68BB68D21A954B1B689A421E
:1004DC002CDD002000F0C4FD0346002B01D00123CD
:1004EC0013E100224FF480718E4801F0F2FA0122E0
:1004FC004FF400718B4801F0ECFA01224FF480614B
:10050C00884801F0E6FA01224FF40061854801F0B9
:10051C00E0FA00224FF48051824801F0DAFA01220D
:10052C004FF400517F4801F0D4FA2BE0002000F08A
:10053C0097FD0346002B01D00123E6E000224FF487
:10054C008071784801F0C5FA01224FF400717548AA
:10055C0001F0BFFA01224FF48061724801F0B9FA40
:10056C0001224FF400616F4801F0B3FA01224FF4FD
:10057C0080516C4801F0ADFA00224FF400516948EB
:10058C0001F0A7FA002000F06BFD0346002B01D010
:10059C000123BAE0FFF7BEFE7B69013B7B617B69FF
:1005AC00002B3FF768AF00BF002000F059FD034659
:1005BC00002B01D00123A8E0564ABB681360564AB1
:1005CC00FB681360554A7B681360554AFB681360DF
:1005DC00FB683B6193E0002000F042FD0346002BDA
:1005EC0001D0012391E04B4B1B68013B494A13603E
:1005FC00494B1B68013B484A1360494B1B68013B44
:10060C00474A1360434B1B68002B0BDA002000F0A9
:10061C0027FD0346002B01D0012376E03F4B1B68DE
:10062C003C4A1360FA68BB68D21A3D4B1B689A426D
:10063C002CDD002000F014FD0346002B01D001231B
:10064C0063E001224FF48071364801F042FA002237
:10065C004FF40071334801F03CFA01224FF48061F1
:10066C00304801F036FA00224FF400612D4801F0B9
:10067C0030FA01224FF480512A4801F02AFA012263
:10068C004FF40051274801F024FA2BE0002000F031
:10069C00E7FC0346002B01D0012336E001224FF486
:1006AC008071204801F015FA01224FF400711D48A9
:1006BC0001F00FFA00224FF480611A4801F009FA98
:1006CC0000224FF40061174801F003FA01224FF4A5
:1006DC008051144801F0FDF901224FF400511148EA
:1006EC0001F0F7F9002000F0BBFC0346002B01D011
:1006FC0001230AE0FFF70EFE3B69013B3B613B69BE
:10070C00002B3FF768AF00BF002318461837BD46D3
:10071C0080BD00BF5C000020680000207400002039
:10072C00640000200008014080B588B000AF7860FC
:10073C000023FB610023BB61FB69002B69D1BB6902
:10074C00002B66D17B687B6160E07B69484A82FB49
:10075C0003129210DB17D31AFB607A69444B83FBAC
:10076C0002139910D317C91A0B469B000B445B005C
:10077C00D31ABB60FB69012B4BD0BB69012B48D052
:10078C0000233B613CE0002000F06AFC0346002B98
:10079C0002D00123FB6136E0012000F061FC03462E
:1007AC00002B02D00123BB612DE000210120FFF7BB
:1007BC00F1FC012000F0CAFE0120FFF7C1FC012171
:1007CC000220FFF7E7FC012000F0C0FE0220FFF73B
:1007DC00B7FCF9680320FFF7DDFC0A2000F0B6FE39
:1007EC000320FFF7ADFCB9680420FFF7D3FC0A2007
:1007FC0000F0ACFE0420FFF7A3FC3B6901333B6126
:10080C003B69132BBFDD7B69013B7B617B69002B53
:10081C009BDA00224FF48071164801F05AF914202B
:10082C0000F094FE00224FF40061124801F051F9DF
:10083C00322000F08BFEFB69002B04D1BB69002B2E
:10084C0001D1012310E0FB69012B04D1BB69002B02
:10085C0001D1022308E0FB69002B04D1BB69012BF9
:10086C0001D1042300E0002318462037BD4680BD8B
:10087C00676666660008014080B584B000AF344BF3
:10088C001B68BB60BB68334A82FB03129210DB17F8
:10089C00D31A7B60BA682F4B83FB02139910D317C2
:1008AC00C91A0B469B000B445B00D31A3B60002318
:1008BC00FB602AE000210120FFF76CFC012000F016
:1008CC0045FE0120FFF73CFC01210220FFF762FCF2
:1008DC00012000F03BFE0220FFF732FC7968032078
:1008EC00FFF758FC0A2000F031FE0320FFF728FC2C
:1008FC0039680420FFF74EFC0A2000F027FE042084
:10090C00FFF71EFCFB680133FB60FB68072BD1DD96
:10091C00022000F0A5FB0346002B01D0052312E0BA
:10092C00012000F09DFB0346002B0BD0084B1B68ED
:10093C000133074A1360064B1B68632B02DD044B23
:10094C0000221A60042318461037BD4680BD00BF34
:10095C000C0000206766666680B588B000AF7860D2
:10096C000023FB610023BB61FB69002B69D1BB69D0
:10097C00002B66D17B687B6160E07B69484A82FB17
:10098C0003129210DB17D31AFB607A69444B83FB7A
:10099C0002139910D317C91A0B469B000B445B002A
:1009AC00D31ABB60FB69012B4BD0BB69012B48D020
:1009BC0000233B613CE0002000F052FB0346002B7F
:1009CC0002D00123FB6136E0012000F049FB034615
:1009DC00002B02D00123BB612DE000210120FFF789
:1009EC00D9FB012000F0B2FD0120FFF7A9FB022189
:1009FC000220FFF7CFFB012000F0A8FD0220FFF73B
:100A0C009FFBF9680320FFF7C5FB0A2000F09EFD51
:100A1C000320FFF795FBB9680420FFF7BBFB0A2006
:100A2C0000F094FD0420FFF78BFB3B6901333B6125
:100A3C003B69132BBFDD7B69013B7B617B69002B21
:100A4C009BDA00224FF40071164801F042F8142092
:100A5C0000F07CFD00224FF48051124801F039F86F
:100A6C00322000F073FDFB69002B04D1BB69002B15
:100A7C0001D1022310E0FB69012B04D1BB69002BCF
:100A8C0001D1032308E0FB69002B04D1BB69012BC6
:100A9C0001D1062300E0002318462037BD4680BD57
:100AAC00676666660008014080B584B000AF344BC1
:100ABC001B68BB60BB68334A82FB03129210DB17C6
:100ACC00D31A7B60BA682F4B83FB02139910D31790
:100ADC00C91A0B469B000B445B00D31A3B600023E6
:100AEC00FB602AE000210120FFF754FB012000F0FD
:100AFC002DFD0120FFF724FB02210220FFF74AFB0A
:100B0C00012000F023FD0220FFF71AFB7968032077
:100B1C00FFF740FB0A2000F019FD0320FFF710FB44
:100B2C0039680420FFF736FB0A2000F00FFD042083
:100B3C00FFF706FBFB680133FB60FB68072BD1DD7D
:100B4C00022000F08DFA0346002B01D0072312E09F
:100B5C00012000F085FA0346002B0BD0084B1B68D4
:100B6C000133074A1360064B1B68632B02DD044BF1
:100B7C0000221A60062318461037BD4680BD00BF00
:100B8C00100000206766666680B588B000AF78609C
:100B9C000023FB610023BB61FB69002B69D1BB699E
:100BAC00002B66D17B687B6160E07B69484A82FBE5
:100BBC0003129210DB17D31AFB607A69444B83FB48
:100BCC0002139910D317C91A0B469B000B445B00F8
:100BDC00D31ABB60FB69012B4BD0BB69012B48D0EE
:100BEC0000233B613CE0002000F03AFA0346002B66
:100BFC0002D00123FB6136E0012000F031FA0346FC
:100C0C00002B02D00123BB612DE000210120FFF756
:100C1C00C1FA012000F09AFC0120FFF791FA0321A0
:100C2C000220FFF7B7FA012000F090FC0220FFF73A
:100C3C0087FAF9680320FFF7ADFA0A2000F086FC6A
:100C4C000320FFF77DFAB9680420FFF7A3FA0A2006
:100C5C0000F07CFC0420FFF773FA3B6901333B6125
:100C6C003B69132BBFDD7B69013B7B617B69002BEF
:100C7C009BDA00224FF48061164800F02AFF142002
:100C8C0000F064FC00224FF40051124800F021FFE8
:100C9C00322000F05BFCFB69002B04D1BB69002BFC
:100CAC0001D1032310E0FB69012B04D1BB69002B9C
:100CBC0001D1002308E0FB69002B04D1BB69012B97
:100CCC0001D1082300E0002318462037BD4680BD23
:100CDC00676666660008014080B584B000AF344B8F
:100CEC001B68BB60BB68334A82FB03129210DB1794
:100CFC00D31A7B60BA682F4B83FB02139910D3175E
:100D0C00C91A0B469B000B445B00D31A3B600023B3
:100D1C00FB602AE000210120FFF73CFA012000F0E3
:100D2C0015FC0120FFF70CFA03210220FFF732FA21
:100D3C00012000F00BFC0220FFF702FA7968032077
:100D4C00FFF728FA0A2000F001FC0320FFF7F8F95E
:100D5C0039680420FFF71EFA0A2000F0F7FB042084
:100D6C00FFF7EEF9FB680133FB60FB68072BD1DD65
:100D7C00022000F075F90346002B01D0092312E084
:100D8C00012000F06DF90346002B0BD0084B1B68BB
:100D9C000133074A1360064B1B68632B02DD044BBF
:100DAC0000221A60082318461037BD4680BD00BFCC
:100DBC00140000206766666680B500AF5C4B1B783C
:100DCC00092B00F2B28001A252F823F0010E0008A8
:100DDC003B0E00088F0E0008E30E0008550E0008AD
:100DEC00670E0008A90E0008BB0E0008FD0E0008D7
:100DFC000F0F000800F04EF90020FFF765FA4D4B7D
:100E0C001A684D4B1B68D31A4C4A1360494B1B682C
:100E1C00494A1168494A12681846FFF709FB03460C
:100E2C001A46434B1A701E2000F090FB7DE000F038
:100E3C0031F90120FFF748FA0520FFF775FC03464E
:100E4C001A463B4B1A7070E000F024F9FFF714FDC2
:100E5C0003461A46364B1A7067E000F01BF9022065
:100E6C0000F0FEF80346002B07D0354B1B68314AC7
:100E7C0013602F4B01221A7057E02D4B05221A706C
:100E8C0053E000F007F90220FFF71EFA0520FFF7E8
:100E9C0063FD03461A46264B1A7046E000F0FAF83A
:100EAC00FFF702FE03461A46214B1A703DE000F094
:100EBC00F1F8022000F0D4F80346002B07D0214BA8
:100ECC001B681E4A13601A4B02221A702DE0184B35
:100EDC0007221A7029E000F0DDF80320FFF7F4F97F
:100EEC000520FFF751FE03461A46114B1A701CE001
:100EFC0000F0D0F8FFF7F0FE03461A460C4B1A70C0
:100F0C0013E000F0C7F8022000F0AAF80346002B0B
:100F1C0007D00D4B1B68084A1360054B03221A704F
:100F2C0002E0034B09221A7000BF00BF80BD00BF56
:100F3C0040000020000000200800002004000020D9
:100F4C000C000020100000201400002080B582B09E
:100F5C0000AF00237B606FE03B4A7B681344197839
:100F6C003A4A7B6813440A461A707B68002B0AD1F4
:100F7C002021374800F096FD03461946324A7B681B
:100F8C0013440A461A707B68012B0AD14021304861
:100F9C0000F088FD034619462B4A7B6813440A4629
:100FAC001A707B68022B0AD18021294800F07AFD47
:100FBC0003461946244A7B6813440A461A70224A8F
:100FCC007B6813441A7821497B680B441B789A423E
:100FDC0008D11D4A7B68134419781E4A7B68134458
:100FEC000A461A701B4A7B6813441B78002B16D1D7
:100FFC00194A7B6832F81330632B0AD8164A7B687F
:10100C0032F81330013399B2134A7B6822F813106B
:10101C000FE0124A7B68134401221A7009E00E4A51
:10102C007B68002122F813100C4A7B6813440022C1
:10103C001A707B6801337B607B68022B8CDD00BFF0
:10104C0000BF0837BD4680BD480000204C00002082
:10105C0000080140440000205400002050000020F3
:10106C0080B483B000AF0346FB71FB79022B01D92E
:10107C00002307E0FB79064AD35C002B0CBF01234D
:10108C000023DBB218460C37BD4680BC704700BF4E
:10109C004400002080B500AF01224FF4807111484C
:1010AC0000F017FD01224FF400710E4800F011FD05
:1010BC0001224FF480610B4800F00BFD01224FF42C
:1010CC000061084800F005FD01224FF480510548ED
:1010DC0000F0FFFC01224FF40051024800F0F9FC33
:1010EC0000BF80BD0008014080B500AF00F0CCF916
:1010FC0000F00CF800F092F800F044F8024801F00F
:10110C0039F9FFF759FEFCE77800002080B590B064
:10111C0000AF07F1180328220021184601F0E2FC69
:10112C003B1D00221A605A609A60DA601A61022331
:10113C00BB610123BB621023FB6200237B6307F1BD
:10114C001803184600F0DEFC0346002B01D000F01B
:10115C00D1F80F237B600023BB600023FB600023CE
:10116C003B6100237B613B1D0021184600F04AFFC8
:10117C000346002B01D000F0BDF800BF4037BD4640
:10118C0080BD000080B586B000AF07F108030022D7
:10119C001A605A609A60DA603B4600221A605A6004
:1011AC001D4B4FF080421A601B4B41F63F725A6048
:1011BC00194B00229A60184B0922DA60164B002258
:1011CC001A61154B00229A61134801F083F803460B
:1011DC00002B01D000F08EF84FF48053BB6007F168
:1011EC00080319460C4801F019FA0346002B01D0EC
:1011FC0000F080F800233B6000237B603B461946DF
:10120C00054801F0E1FB0346002B01D000F072F819
:10121C0000BF1837BD4680BD7800002080B588B06F
:10122C0000AF07F1100300221A605A609A60DA606E
:10123C002D4B9B692C4A43F0200393612A4B9B69ED
:10124C0003F02003FB60FB68274B9B69264A43F0A5
:10125C0004039361244B9B6903F00403BB60BB68DC
:10126C00214B9B69204A43F0080393611E4B9B69F9
:10127C0003F008037B607B68002243F61E711B4859
:10128C0000F027FC0022FF21194800F022FC43F655
:10129C001E733B6101237B610023BB610223FB6155
:1012AC0007F110031946114800F082FAE0233B6164
:1012BC0000237B610123BB6107F1100319460B4826
:1012CC0000F076FAFF233B6101237B610023BB61B5
:1012DC000223FB6107F110031946054800F068FA78
:1012EC0000BF2037BD4680BD001002400008014001
:1012FC00000C014080B400AF72B600BFFEE70000E6
:10130C0080B485B000AF154B9B69144A43F00103C0
:10131C009361124B9B6903F00103BB60BB680F4BDD
:10132C00DB690E4A43F08053D3610C4BDB6903F04D
:10133C0080537B607B680A4B5B68FB60FB6823F027
:10134C00E063FB60FB6843F08063FB60044AFB686E
:10135C00536000BF1437BD4680BC7047001002407C
:10136C000000014080B584B000AF78607B681B68DA
:10137C00B3F1804F13D10C4BDB690B4A43F00103E3
:10138C00D361094BDB6903F00103FB60FB680022AE
:10139C0000211C2000F0D5F91C2000F0EEF900BF54
:1013AC001037BD4680BD00BF0010024080B400AFB6
:1013BC00FEE780B400AFFEE780B400AFFEE780B478
:1013CC0000AFFEE780B400AFFEE780B400AF00BF13
:1013DC00BD4680BC704780B400AF00BFBD4680BC2A
:1013EC00704780B400AF00BFBD4680BC704780B56D
:1013FC0000AF00F08FF800BF80BD000080B500AFDB
:10140C00024801F003F800BF80BD00BF7800002047
:10141C0080B400AF00BFBD4680BC704780B582B0C1
:10142C0000AF78607B681B68B3F1804F01D1FFF788
:10143C008DFD00BF0837BD4680BD00000C480D492E
:10144C000D4A002302E0D458C4500433C4188C4213
:10145C00F9D30A4A0A4C002301E013600432A24279
:10146C00FBD3FFF7D5FF01F019FBFFF73DFE7047EB
:10147C0000000020240000204C2B00082400002039
:10148C00C4000020FEE7000080B500AF084B1B68CD
:10149C00074A43F010031360032000F047F90F20B4
:1014AC0000F008F8FFF72CFF0023184680BD00BFA2
:1014BC000020024080B582B000AF7860124B1A68F1
:1014CC00124B1B7819464FF47A73B3FBF1F3B2FB52
:1014DC00F3F3184600F05FF90346002B01D001230B
:1014EC000EE07B680F2B0AD8002279684FF0FF3092
:1014FC0000F027F9064A7B681360002300E0012303
:10150C0018460837BD4680BD18000020200000207A
:10151C001C00002080B400AF054B1B781A46054B0D
:10152C001B681344034A136000BFBD4680BC704760
:10153C0020000020C000002080B400AF024B1B68CC
:10154C001846BD4680BC7047C000002080B584B0F2
:10155C0000AF7860FFF7F0FFB8607B68FB60FB685A
:10156C00B3F1FF3F05D00A4B1B781A46FB681344B6
:10157C00FB6000BFFFF7E0FF0246BB68D31AFA68B6
:10158C009A42F7D800BF00BF1037BD4680BD00BFE0
:10159C002000002080B485B000AF78607B6803F039
:1015AC000703FB600C4BDB68BB60BA684FF6FF03AC
:1015BC001340BB60FB681A02BB68134343F0BF6364
:1015CC0043F40033BB60044ABB68D36000BF1437DC
:1015DC00BD4680BC704700BF00ED00E080B400AF9A
:1015EC00044BDB681B0A03F007031846BD4680BC9E
:1015FC00704700BF00ED00E080B483B000AF03463D
:10160C00FB7197F90730002B0BDBFB7903F01F0202
:10161C00064997F907305B09012000FA02F241F8FC
:10162C00232000BF0C37BD4680BC704700E100E0B2
:10163C0080B483B000AF03463960FB7197F9073073
:10164C00002B0ADB3B68DAB20C4997F90730120120
:10165C00D2B20B4483F800230AE03B68DAB20849A3
:10166C00FB7903F00F03043B1201D2B20B441A7640
:10167C0000BF0C37BD4680BC704700BF00E100E0E6
:10168C0000ED00E080B489B000AFF860B9607A601A
:10169C00FB6803F00703FB61FB69C3F10703042B31
:1016AC0028BF0423BB61FB690433062B02D9FB69F9
:1016BC00033B00E000237B614FF0FF32BB6902FA71
:1016CC0003F3DA43BB681A407B699A404FF0FF3151
:1016DC007B6901FA03F3D9437B680B40134318462B
:1016EC002437BD4680BC704780B582B000AF7860AF
:1016FC007B68013BB3F1807F01D301230FE00A4AE1
:10170C007B68013B53600F214FF0FF30FFF790FFD8
:10171C00054B00229A60044B07221A6000231846DE
:10172C000837BD4680BD00BF10E000E080B582B038
:10173C0000AF78607868FFF72DFF00BF0837BD4613
:10174C0080BD80B586B000AF0346B9607A60FB738C
:10175C0000237B61FFF742FF78617A68B96878698A
:10176C00FFF790FF024697F90F3011461846FFF726
:10177C005FFF00BF1837BD4680BD80B582B000AF9B
:10178C000346FB7197F907301846FFF735FF00BF8A
:10179C000837BD4680BD80B582B000AF78607868F0
:1017AC00FFF7A2FF034618460837BD4680BD000070
:1017BC0080B48BB000AF7860396000237B6200236B
:1017CC003B6248E101227B6A02FA03F3FB613B684E
:1017DC001B68FA691340BB61BA69FB699A4240F015
:1017EC0037813B685B68A34A93425ED0A14A93421F
:1017FC0075D8A14A934258D09F4A93426FD89F4ABA
:10180C00934252D09D4A934269D89D4A93424CD000
:10181C009B4A934263D89B4A934246D0994A93423F
:10182C005DD8122B2AD8122B59D801A252F823F0CA
:10183C00B718000891180008A3180008E51800084C
:10184C00EB180008EB180008EB180008EB18000860
:10185C00EB180008EB180008EB180008EB18000850
:10186C00EB180008EB180008EB180008EB18000840
:10187C00EB18000899180008AD180008824A93422A
:10188C0013D02CE03B68DB683B6229E03B68DB68EB
:10189C0004333B6224E03B68DB6808333B621FE0A7
:1018AC003B68DB680C333B621AE03B689B68002B9F
:1018BC0002D104233B6213E03B689B68012B05D1EA
:1018CC0008233B627B68FA691A6109E008233B62D2
:1018DC007B68FA695A6103E000233B6200E000BFB9
:1018EC00BB69FF2B01D87B6801E07B6804337B610B
:1018FC00BB69FF2B02D87B6A9B0002E07B6A083B2A
:10190C009B003B617B691A680F213B6901FA03F369
:10191C00DB431A40396A3B6901FA03F31A437B69CA
:10192C001A603B685B6803F08053002B00F09080DA
:10193C00564B9B69554A43F001039361534B9B698A
:10194C0003F00103BB60BB68514A7B6A9B080233FE
:10195C0052F82330FB607B6A03F003039B000F22D9
:10196C0002FA03F3DB43FA681340FB607B68494AD5
:10197C0093420DD07B68484A934207D07B68474A14
:10198C00934201D1022304E0032302E0012300E08F
:10199C0000237A6A02F0030292009340FA68134320
:1019AC00FB603B497B6A9B080233FA6841F82320B1
:1019BC003B685B6803F48033002B06D0384B1A6805
:1019CC003749BB6913430B6006E0354B1A68BB699A
:1019DC00DB43334913400B603B685B6803F4003313
:1019EC00002B06D02E4B5A682D49BB6913434B6014
:1019FC0006E02B4B5A68BB69DB43294913404B600B
:101A0C003B685B6803F48013002B06D0244B9A6868
:101A1C002349BB6913438B6006E0214B9A68BB6971
:101A2C00DB431F4913408B603B685B6803F4001376
:101A3C00002B06D01A4BDA681949BB691343CB60EB
:101A4C0006E0174BDA68BB69DB4315491340CB60E2
:101A5C007B6A01337B623B681A687B6A22FA03F368
:101A6C00002B7FF4AFAE00BF00BF2C37BD4680BC4F
:101A7C00704700BF0000321000003110000022102F
:101A8C000000211000001210000011100010024084
:101A9C000000014000080140000C01400010014012
:101AAC000004014080B485B000AF78600B467B80A9
:101ABC007B689A687B881340002B02D00123FB7350
:101ACC0001E00023FB73FB7B18461437BD4680BC3A
:101ADC00704780B483B000AF78600B467B801346B0
:101AEC007B707B78002B03D07A887B681A6103E0CB
:101AFC007B881A047B681A6100BF0C37BD4680BC1A
:101B0C007047000080B586B000AF78607B68002B12
:101B1C0001D101236CE27B681B6803F00103002BED
:101B2C0000F08780924B5B6803F00C03042B0CD005
:101B3C008F4B5B6803F00C03082B12D18C4B5B684A
:101B4C0003F48033B3F5803F0BD1894B1B6803F44E
:101B5C000033002B6CD07B685B68002B68D10123B1
:101B6C0046E27B685B68B3F5803F06D1804B1B680F
:101B7C007F4A43F4803313602EE07B685B68002B54
:101B8C000CD17B4B1B687A4A23F480331360784B5F
:101B9C001B68774A23F4802313601DE07B685B6825
:101BAC00B3F5A02F0CD1724B1B68714A43F4802300
:101BBC0013606F4B1B686E4A43F4803313600BE069
:101BCC006B4B1B686A4A23F480331360684B1B68A9
:101BDC00674A23F4802313607B685B68002B13D067
:101BEC00FFF7AAFC386108E0FFF7A6FC02463B6948
:101BFC00D31A642B01D90323FAE15D4B1B6803F460
:101C0C000033002BF0D014E0FFF796FC386108E0AD
:101C1C00FFF792FC02463B69D31A642B01D90323CC
:101C2C00E6E1534B1B6803F40033002BF0D100E0CA
:101C3C0000BF7B681B6803F00203002B63D04C4B86
:101C4C005B6803F00C03002B0BD0494B5B6803F073
:101C5C000C03082B1CD1464B5B6803F48033002B20
:101C6C0016D1434B1B6803F00203002B05D07B6895
:101C7C001B69012B01D00123BAE13D4B1B6823F0FA
:101C8C00F8027B685B69DB00394913430B603AE06F
:101C9C007B681B69002B20D0364B01221A60FFF7A2
:101CAC004BFC386108E0FFF747FC02463B69D31A4E
:101CBC00022B01D903239BE12D4B1B6803F002037C
:101CCC00002BF0D02A4B1B6823F0F8027B685B6971
:101CDC00DB00274913430B6015E0264B00221A60EA
:101CEC00FFF72AFC386108E0FFF726FC02463B6947
:101CFC00D31A022B01D903237AE11D4B1B6803F085
:101D0C000203002BF0D17B681B6803F00803002B47
:101D1C003AD07B689B69002B19D0174B01221A60B3
:101D2C00FFF70AFC386108E0FFF706FC02463B6946
:101D3C00D31A022B01D903235AE10D4B5B6A03F032
:101D4C000203002BF0D0012000F0A6FA1CE00A4B95
:101D5C0000221A60FFF7F0FB38610FE0FFF7ECFB95
:101D6C0002463B69D31A022B08D9032340E100BF7A
:101D7C000010024000004242800442429E4B5B6ACB
:101D8C0003F00203002BE9D17B681B6803F004030A
:101D9C00002B00F0A6800023FB75974BDB6903F04A
:101DAC008053002B0DD1944BDB69934A43F0805345
:101DBC00D361914BDB6903F08053BB60BB6801239B
:101DCC00FB758E4B1B6803F48073002B18D18B4B67
:101DDC001B688A4A43F480731360FFF7ADFB3861CC
:101DEC0008E0FFF7A9FB02463B69D31A642B01D923
:101DFC000323FDE0814B1B6803F48073002BF0D0B0
:101E0C007B68DB68012B06D17B4B1B6A7A4A43F05B
:101E1C00010313622DE07B68DB68002B0CD1764B41
:101E2C001B6A754A23F001031362734B1B6A724AD7
:101E3C0023F0040313621CE07B68DB68052B0CD1D8
:101E4C006D4B1B6A6C4A43F0040313626A4B1B6AAA
:101E5C00694A43F0010313620BE0674B1B6A664A45
:101E6C0023F001031362644B1B6A634A23F00403DF
:101E7C0013627B68DB68002B15D0FFF75DFB3861C4
:101E8C000AE0FFF759FB02463B69D31A41F288324C
:101E9C00934201D90323ABE0574B1B6A03F00203B7
:101EAC00002BEED014E0FFF747FB38610AE0FFF798
:101EBC0043FB02463B69D31A41F28832934201D963
:101ECC00032395E04C4B1B6A03F00203002BEED16D
:101EDC00FB7D012B05D1484BDB69474A23F080532E
:101EEC00D3617B68DB69002B00F08180424B5B681F
:101EFC0003F00C03082B61D07B68DB69022B46D105
:101F0C003F4B00221A60FFF717FB386108E0FFF720
:101F1C0013FB02463B69D31A022B01D9032367E05A
:101F2C00354B1B6803F00073002BF0D17B681B6AE8
:101F3C00B3F5803F08D1304B5B6823F400327B68EB
:101F4C009B682D4913434B602B4B5B6823F4741235
:101F5C007B68196A7B685B6A0B43274913434B60A8
:101F6C00274B01221A60FFF7E7FA386108E0FFF708
:101F7C00E3FA02463B69D31A022B01D9032337E05B
:101F8C001D4B1B6803F00073002BF0D02FE01C4B93
:101F9C0000221A60FFF7D0FA386108E0FFF7CCFA9C
:101FAC0002463B69D31A022B01D9032320E0124BC2
:101FBC001B6803F00073002BF0D118E07B68DB6921
:101FCC00012B01D1012313E00B4B5B68FB60FB6819
:101FDC0003F480327B681B6A9A4206D1FB6803F4D7
:101FEC0070127B685B6A9A4201D0012300E00023E7
:101FFC0018461837BD4680BD0010024000700040E6
:10200C006000424280B584B000AF786039607B6874
:10201C00002B01D10123D0E06A4B1B6803F00703AE
:10202C003A689A4210D9674B1B6823F0070265493E
:10203C003B6813430B60634B1B6803F007033A6860
:10204C009A4201D00123B8E07B681B6803F00203BD
:10205C00002B20D07B681B6803F00403002B05D0F9
:10206C00594B5B68584A43F4E06353607B681B68C8
:10207C0003F00803002B05D0534B5B68524A43F422
:10208C0060535360504B5B6823F0F0027B689B6895
:10209C004D4913434B607B681B6803F00103002B15
:1020AC0040D07B685B68012B07D1474B1B6803F45E
:1020BC000033002B15D101237FE07B685B68022B7A
:1020CC0007D1414B1B6803F00073002B09D101238E
:1020DC0073E03D4B1B6803F00203002B01D101237D
:1020EC006BE0394B5B6823F003027B685B68364915
:1020FC0013434B60FFF720FAF8600AE0FFF71CFA75
:10210C000246FB68D31A41F28832934201D9032369
:10211C0053E02D4B5B6803F00C027B685B689B0003
:10212C009A42EBD1274B1B6803F007033A689A429B
:10213C0010D2244B1B6823F0070222493B6813433F
:10214C000B60204B1B6803F007033A689A4201D0DE
:10215C00012332E07B681B6803F00403002B08D0DA
:10216C00194B5B6823F4E0627B68DB681649134308
:10217C004B607B681B6803F00803002B09D0124BE3
:10218C005B6823F460527B681B69DB000E491343C8
:10219C004B6000F021F802460B4B5B681B0903F007
:1021AC000F030A49CB5C22FA03F3094A1360094B6B
:1021BC001B681846FFF77EF9002318461037BD46FA
:1021CC0080BD00BF0020024000100240342B0008EC
:1021DC00180000201C00002090B48AB000AF2A4BDD
:1021EC003C1D0FCB84E80F0040F201233B80002301
:1021FC00FB610023BB6100237B6200237B61002316
:10220C003B62224B5B68FB61FB6903F00C03042B04
:10221C0002D0082B03D02DE01D4B3B622DE0FB6957
:10222C009B0C03F00F0307F12802134413F8243C12
:10223C007B61FB6903F48033002B13D0134B5B6879
:10224C005B0C03F0010307F12802134413F8283C3C
:10225C00BB617B690E4A02FB03F2BB69B2FBF3F371
:10226C007B6204E07B690B4A02FB03F37B627B6AB3
:10227C003B6202E0064B3B6200BF3B6A18462837C4
:10228C00BD4690BC704700BF242B000800100240D4
:10229C0000127A0000093D0080B485B000AF786070
:1022AC000A4B1B680A4AA2FB03235B0A7A6802FBEF
:1022BC0003F3FB6000BFFB685A1EFA60002BF9D1D8
:1022CC0000BF00BF1437BD4680BC7047180000200B
:1022DC00D34D621080B582B000AF78607B68002B64
:1022EC0001D1012341E07B6893F83D30DBB2002B38
:1022FC0006D17B68002283F83C207868FFF732F81F
:10230C007B68022283F83D207B681A687B68043363
:10231C001946104600F06AFA7B68012283F84620C1
:10232C007B68012283F83E207B68012283F83F20E2
:10233C007B68012283F840207B68012283F84120CE
:10234C007B68012283F842207B68012283F84320BA
:10235C007B68012283F844207B68012283F84520A6
:10236C007B68012283F83D20002318460837BD46C0
:10237C0080BD000080B485B000AF78607B6893F8B6
:10238C003D30DBB2012B01D0012335E07B6802220A
:10239C0083F83D207B681B68DA687B681B6842F019
:1023AC000102DA607B681B68164A934209D07B688D
:1023BC001B68B3F1804F04D07B681B68124A9342B0
:1023CC0011D17B681B689B6803F00703FB60FB68FB
:1023DC00062B10D07B681B681A687B681B6842F060
:1023EC0001021A6007E07B681B681A687B681B682F
:1023FC0042F001021A60002318461437BD4680BC17
:10240C00704700BF002C01400004004080B582B032
:10241C0000AF78607B681B681B6903F00203022B1A
:10242C0022D17B681B68DB6803F00203022B1BD1F3
:10243C007B681B686FF002021A617B6801221A77B5
:10244C007B681B689B6903F00303002B03D078683F
:10245C0000F0B1F905E0786800F0A4F9786800F0B4
:10246C00B3F97B6800221A777B681B681B6903F041
:10247C000403042B22D17B681B68DB6803F0040384
:10248C00042B1BD17B681B686FF004021A617B68FC
:10249C0002221A777B681B689B6903F44073002B3C
:1024AC0003D0786800F087F905E0786800F07AF9D5
:1024BC00786800F089F97B6800221A777B681B68C2
:1024CC001B6903F00803082B22D17B681B68DB68AF
:1024DC0003F00803082B1BD17B681B686FF0080204
:1024EC001A617B6804221A777B681B68DB6903F02E
:1024FC000303002B03D0786800F05DF905E07868E1
:10250C0000F050F9786800F05FF97B6800221A77C8
:10251C007B681B681B6903F01003102B22D17B68AE
:10252C001B68DB6803F01003102B1BD17B681B6846
:10253C006FF010021A617B6808221A777B681B689F
:10254C00DB6903F44073002B03D0786800F033F997
:10255C0005E0786800F026F9786800F035F97B68BA
:10256C0000221A777B681B681B6903F00103012B9F
:10257C000ED17B681B68DB6803F00103012B07D1CC
:10258C007B681B686FF001021A617868FEF746FFE2
:10259C007B681B681B6903F08003802B0ED17B6862
:1025AC001B68DB6803F08003802B07D17B681B68FA
:1025BC006FF080021A61786800F067FA7B681B681C
:1025CC001B6903F04003402B0ED17B681B68DB6852
:1025DC0003F04003402B07D17B681B686FF040026F
:1025EC001A61786800F0F9F87B681B681B6903F0C6
:1025FC002003202B0ED17B681B68DB6803F02003C3
:10260C00202B07D17B681B686FF020021A61786859
:10261C0000F032FA00BF0837BD4680BD80B584B0EB
:10262C0000AF786039607B6893F83C30012B01D1A6
:10263C000223B3E07B68012283F83C207B680222F2
:10264C0083F83D207B681B689B68FB60FB6823F06C
:10265C007703FB60FB6823F47F43FB607B681B689C
:10266C00FA689A603B681B68B3F5005F3ED0B3F51F
:10267C00005F00F28780B3F5805F00F08580B3F5D2
:10268C00805F7FD8702B1AD0702B7BD8602B50D0EA
:10269C00602B77D8502B3CD0502B73D8402B58D074
:1026AC00402B6FD8302B64D0302B6BD8202B60D0C4
:1026BC00202B67D8002B5CD0102B5AD062E07B68A3
:1026CC0018683B6899683B685A683B68DB6800F09F
:1026DC005CF97B681B689B68FB60FB6843F07703C5
:1026EC00FB607B681B68FA689A604EE07B68186830
:1026FC003B6899683B685A683B68DB6800F045F9B1
:10270C007B681B689A687B681B6842F480429A60FD
:10271C003BE07B6818683B6859683B68DB681A4685
:10272C0000F0BCF87B681B685021184600F013F9C8
:10273C002BE07B6818683B6859683B68DB681A4675
:10274C0000F0DAF87B681B686021184600F003F98A
:10275C001BE07B6818683B6859683B68DB681A4665
:10276C0000F09CF87B681B684021184600F0F3F8D9
:10277C000BE07B681A683B681B681946104600F032
:10278C00EAF802E000BF00E000BF7B68012283F89A
:10279C003D207B68002283F83C200023184610372C
:1027AC00BD4680BD80B483B000AF786000BF0C37ED
:1027BC00BD4680BC704780B483B000AF786000BF6A
:1027CC000C37BD4680BC704780B483B000AF7860D6
:1027DC0000BF0C37BD4680BC704780B483B000AFDF
:1027EC00786000BF0C37BD4680BC704780B485B0A4
:1027FC0000AF786039607B681B68FB607B68254A9A
:10280C00934207D07B68B3F1804F03D07B68224A98
:10281C00934208D1FB6823F07003FB603B685B6854
:10282C00FA681343FB607B681A4A934207D07B68B3
:10283C00B3F1804F03D07B68174A934208D1FB68F1
:10284C0023F44073FB603B68DB68FA681343FB605E
:10285C00FB6823F080023B685B691343FB607B6879
:10286C00FA681A603B689A687B68DA623B681A6897
:10287C007B689A627B68074A934203D13B681A696A
:10288C007B681A637B6801225A6100BF1437BD460E
:10289C0080BC7047002C01400004004080B487B01D
:1028AC0000AFF860B9607A60FB681B6A7B61FB68FB
:1028BC001B6A23F00102FB681A62FB689B693B618F
:1028CC003B6923F0F0033B617B681B013A691343BE
:1028DC003B617B6923F00A037B617A69BB68134314
:1028EC007B61FB683A699A61FB687A691A6200BF7E
:1028FC001C37BD4680BC704780B487B000AFF86011
:10290C00B9607A60FB681B6A23F01002FB681A62DC
:10291C00FB689B697B61FB681B6A3B617B6923F4E9
:10292C0070437B617B681B037A6913437B613B6952
:10293C0023F0A0033B61BB681B013A6913433B6165
:10294C00FB687A699A61FB683A691A6200BF1C37A6
:10295C00BD4680BC704780B485B000AF78603960EC
:10296C007B689B68FB60FB6823F07003FB603A6834
:10297C00FB68134343F00703FB607B68FA689A60BB
:10298C0000BF1437BD4680BC704780B487B000AF21
:10299C00F860B9607A603B60FB689B687B617B691F
:1029AC0023F47F437B613B681A027B681A43BB6844
:1029BC0013437A6913437B61FB687A699A6000BFA1
:1029CC001C37BD4680BC704780B485B000AF7860C2
:1029DC0039607B6893F83C30012B01D1022341E034
:1029EC007B68012283F83C207B68022283F83D201F
:1029FC007B681B685B68FB607B681B689B68BB60C3
:102A0C00FB6823F07003FB603B681B68FA68134398
:102A1C00FB607B681B68FA685A607B681B68144A09
:102A2C00934209D07B681B68B3F1804F04D07B685C
:102A3C001B68104A93420CD1BB6823F08003BB6027
:102A4C003B685B68BA681343BB607B681B68BA68F9
:102A5C009A607B68012283F83D207B68002283F812
:102A6C003C20002318461437BD4680BC704700BF7D
:102A7C00002C01400004004080B483B000AF7860AB
:102A8C0000BF0C37BD4680BC704780B483B000AF2C
:102A9C00786000BF0C37BD4680BC704770B500260F
:102AAC000C4D0D4C641BA410A64209D100F022F869
:102ABC0000260A4D0A4C641BA410A64205D170BD19
:102ACC0055F8043B98470136EEE755F8043B984718
:102ADC000136F2E7442B0008442B0008442B000875
:102AEC00482B000803460244934200D1704703F878
:102AFC00011BF9E7F8B500BFF8BC08BC9E4670474F
:0C2B0C00F8B500BFF8BC08BC9E4670473E
:102B180040792430191202780010000002030405DD
:102B2800060708090A0B0C0D0E0F10100000000014
:0C2B380000000000010203040607080969
:042B44003101000853
:042B48000D01000873
:102B4C000B00000002000000060000000100000065
:102B5C0001000000010000000024F400100000003F
:042B6C000100000064
:040000050800144992
:00000001FF
